{
  "transactions": [
    {
      "hash": "0x1fe75d5e221113a454a9790bcda271808debf8a6642780942a8cb2b938928fec",
      "transactionType": "CREATE",
      "contractName": "Rec",
      "contractAddress": "0xdb45fc925702f63cacea16f276ffee0b95c26d4e",
      "function": null,
      "arguments": null,
      "transaction": {
        "from": "0x3ab12b9ff37c21c8c2d92f8f0209d1e04d6b57ee",
        "gas": "0x52f95",
        "value": "0x0",
        "input": "0x6080604052348015600e575f5ffd5b506103c58061001c5f395ff3fe608060405234801561000f575f5ffd5b5060043610610034575f3560e01c80639c74b0a814610038578063e66f0a7714610054575b5f5ffd5b610052600480360381019061004d91906101d6565b610084565b005b61006e60048036038101906100699190610234565b610194565b60405161007b9190610279565b60405180910390f35b5f5f825f013581526020019081526020015f205f9054906101000a900460ff16156100e4576040517f08c379a00000000000000000000000000000000000000000000000000000000081526004016100db906102ec565b60405180910390fd5b60015f5f835f013581526020019081526020015f205f6101000a81548160ff0219169083151502179055508060400160208101906101229190610364565b73ffffffffffffffffffffffffffffffffffffffff1681602001602081019061014b9190610364565b73ffffffffffffffffffffffffffffffffffffffff16825f01357fa2a3e8859aed03fbfaae627a7eb52f6e9b4fbf7afb18e03bcfdf8644a59e7f1a60405160405180910390a450565b5f602052805f5260405f205f915054906101000a900460ff1681565b5f5ffd5b5f5ffd5b5f606082840312156101cd576101cc6101b4565b5b81905092915050565b5f606082840312156101eb576101ea6101b0565b5b5f6101f8848285016101b8565b91505092915050565b5f819050919050565b61021381610201565b811461021d575f5ffd5b50565b5f8135905061022e8161020a565b92915050565b5f60208284031215610249576102486101b0565b5b5f61025684828501610220565b91505092915050565b5f8115159050919050565b6102738161025f565b82525050565b5f60208201905061028c5f83018461026a565b92915050565b5f82825260208201905092915050565b7f616c7265616479207265636569766564000000000000000000000000000000005f82015250565b5f6102d6601083610292565b91506102e1826102a2565b602082019050919050565b5f6020820190508181035f830152610303816102ca565b9050919050565b5f73ffffffffffffffffffffffffffffffffffffffff82169050919050565b5f6103338261030a565b9050919050565b61034381610329565b811461034d575f5ffd5b50565b5f8135905061035e8161033a565b92915050565b5f60208284031215610379576103786101b0565b5b5f61038684828501610350565b9150509291505056fea26469706673582212207763d389de2006d5c9969140396554472a19d684cc30b5f2cc404369d001655664736f6c634300081e0033",
        "nonce": "0xe",
        "chainId": "0xaa36a7"
      },
      "additionalContracts": [],
      "isFixedGasLimit": false
    },
    {
      "hash": "0xc80a3d195ce4504ff6988b0a68face11269dd00f688ee3ab3e799c68c00b3f71",
      "transactionType": "CREATE",
      "contractName": "Sss",
      "contractAddress": "0xd30b3a8292deeb28dd5604ddac19e00fed5a99ae",
      "function": null,
      "arguments": [
        "0xDB45fC925702f63cAcEA16f276fFEe0b95C26d4E"
      ],
      "transaction": {
        "from": "0x3ab12b9ff37c21c8c2d92f8f0209d1e04d6b57ee",
        "gas": "0xa7c4d",
        "value": "0x0",
        "input": "0x60a060405234801561000f575f5ffd5b506040516109b63803806109b6833981810160405281019061003191906100c9565b8073ffffffffffffffffffffffffffffffffffffffff1660808173ffffffffffffffffffffffffffffffffffffffff1681525050506100f4565b5f5ffd5b5f73ffffffffffffffffffffffffffffffffffffffff82169050919050565b5f6100988261006f565b9050919050565b6100a88161008e565b81146100b2575f5ffd5b50565b5f815190506100c38161009f565b92915050565b5f602082840312156100de576100dd61006b565b5b5f6100eb848285016100b5565b91505092915050565b6080516108906101265f395f818160740152818160c30152818161013b015281816101eb015261034001526108905ff3fe608060405234801561000f575f5ffd5b5060043610610034575f3560e01c806354cfe21614610038578063905acd6b14610056575b5f5ffd5b610040610072565b60405161004d919061044b565b60405180910390f35b610070600480360381019061006b9190610493565b610096565b005b7f000000000000000000000000000000000000000000000000000000000000000081565b5f818036038101906100a89190610608565b90505f73ffffffffffffffffffffffffffffffffffffffff167f000000000000000000000000000000000000000000000000000000000000000073ffffffffffffffffffffffffffffffffffffffff1603610138576040517f08c379a000000000000000000000000000000000000000000000000000000000815260040161012f9061068d565b60405180910390fd5b5f7f000000000000000000000000000000000000000000000000000000000000000073ffffffffffffffffffffffffffffffffffffffff163b116101b1576040517f08c379a00000000000000000000000000000000000000000000000000000000081526004016101a8906106f5565b60405180910390fd5b33816020019073ffffffffffffffffffffffffffffffffffffffff16908173ffffffffffffffffffffffffffffffffffffffff16815250507f0000000000000000000000000000000000000000000000000000000000000000816040019073ffffffffffffffffffffffffffffffffffffffff16908173ffffffffffffffffffffffffffffffffffffffff1681525050806040015173ffffffffffffffffffffffffffffffffffffffff16816020015173ffffffffffffffffffffffffffffffffffffffff16825f01517fb160545ba13423611b1bee41ce793d8cf1c84bf04cf366771c589ea83962f10860405160405180910390a45f7f9c74b0a8b2ab552d735d30895883abbdf924c73083957dbf70326587f79e735490505f81836040516024016102de9190610771565b604051602081830303815290604052907bffffffffffffffffffffffffffffffffffffffffffffffffffffffff19166020820180517bffffffffffffffffffffffffffffffffffffffffffffffffffffffff838183161783525050505090505f7f000000000000000000000000000000000000000000000000000000000000000073ffffffffffffffffffffffffffffffffffffffff168260405161038391906107dc565b5f604051808303815f865af19150503d805f81146103bc576040519150601f19603f3d011682016040523d82523d5f602084013e6103c1565b606091505b5050905080610405576040517f08c379a00000000000000000000000000000000000000000000000000000000081526004016103fc9061083c565b60405180910390fd5b5050505050565b5f73ffffffffffffffffffffffffffffffffffffffff82169050919050565b5f6104358261040c565b9050919050565b6104458161042b565b82525050565b5f60208201905061045e5f83018461043c565b92915050565b5f604051905090565b5f5ffd5b5f5ffd5b5f6060828403121561048a57610489610471565b5b81905092915050565b5f606082840312156104a8576104a761046d565b5b5f6104b584828501610475565b91505092915050565b5f5ffd5b5f601f19601f8301169050919050565b7f4e487b71000000000000000000000000000000000000000000000000000000005f52604160045260245ffd5b610508826104c2565b810181811067ffffffffffffffff82111715610527576105266104d2565b5b80604052505050565b5f610539610464565b905061054582826104ff565b919050565b5f819050919050565b61055c8161054a565b8114610566575f5ffd5b50565b5f8135905061057781610553565b92915050565b6105868161042b565b8114610590575f5ffd5b50565b5f813590506105a18161057d565b92915050565b5f606082840312156105bc576105bb6104be565b5b6105c66060610530565b90505f6105d584828501610569565b5f8301525060206105e884828501610593565b60208301525060406105fc84828501610593565b60408301525092915050565b5f6060828403121561061d5761061c61046d565b5b5f61062a848285016105a7565b91505092915050565b5f82825260208201905092915050565b7f726563656976652061646472206e6f74207365740000000000000000000000005f82015250565b5f610677601483610633565b915061068282610643565b602082019050919050565b5f6020820190508181035f8301526106a48161066b565b9050919050565b7f726563656976652061646472206e6f7420636f6e7472616374000000000000005f82015250565b5f6106df601983610633565b91506106ea826106ab565b602082019050919050565b5f6020820190508181035f83015261070c816106d3565b9050919050565b61071c8161054a565b82525050565b61072b8161042b565b82525050565b606082015f8201516107455f850182610713565b5060208201516107586020850182610722565b50604082015161076b6040850182610722565b50505050565b5f6060820190506107845f830184610731565b92915050565b5f81519050919050565b5f81905092915050565b8281835e5f83830152505050565b5f6107b68261078a565b6107c08185610794565b93506107d081856020860161079e565b80840191505092915050565b5f6107e782846107ac565b915081905092915050565b7f726563656976654d6573206661696c65640000000000000000000000000000005f82015250565b5f610826601183610633565b9150610831826107f2565b602082019050919050565b5f6020820190508181035f8301526108538161081a565b905091905056fea264697066735822122013435c8940e0de0b02aee014471908c6a12986d2617c857693ec6187e9d9ba6064736f6c634300081e0033000000000000000000000000db45fc925702f63cacea16f276ffee0b95c26d4e",
        "nonce": "0xf",
        "chainId": "0xaa36a7"
      },
      "additionalContracts": [],
      "isFixedGasLimit": false
    },
    {
      "hash": "0x77dcf929c20ef47e82716c2dc175c47eeeee5f7265aedd3e0b5737968d363f63",
      "transactionType": "CALL",
      "contractName": "Sss",
      "contractAddress": "0xd30b3a8292deeb28dd5604ddac19e00fed5a99ae",
      "function": "sentMes((uint256,address,address))",
      "arguments": [
        "(1, 0x0000000000000000000000000000000000000000, 0x0000000000000000000000000000000000000000)"
      ],
      "transaction": {
        "from": "0x3ab12b9ff37c21c8c2d92f8f0209d1e04d6b57ee",
        "to": "0xd30b3a8292deeb28dd5604ddac19e00fed5a99ae",
        "gas": "0x134dd",
        "value": "0x0",
        "input": "0x905acd6b000000000000000000000000000000000000000000000000000000000000000100000000000000000000000000000000000000000000000000000000000000000000000000000000000000000000000000000000000000000000000000000000",
        "nonce": "0x10",
        "chainId": "0xaa36a7"
      },
      "additionalContracts": [],
      "isFixedGasLimit": false
    }
  ],
  "receipts": [
    {
      "status": "0x1",
      "cumulativeGasUsed": "0x6b7082",
      "logs": [],
      "logsBloom": "0x00000000000000000000000000000000000000000000000000000000000000000000000000000000000000000000000000000000000000000000000000000000000000000000000000000000000000000000000000000000000000000000000000000000000000000000000000000000000000000000000000000000000000000000000000000000000000000000000000000000000000000000000000000000000000000000000000000000000000000000000000000000000000000000000000000000000000000000000000000000000000000000000000000000000000000000000000000000000000000000000000000000000000000000000000000000",
      "type": "0x2",
      "transactionHash": "0x1fe75d5e221113a454a9790bcda271808debf8a6642780942a8cb2b938928fec",
      "transactionIndex": "0x3f",
      "blockHash": "0xb41a37a1bd98f7c76e407a2f4e1bfd8752df640b5855ba470fc04a97a2c3a1cd",
      "blockNumber": "0x91ba71",
      "gasUsed": "0x3fd38",
      "effectiveGasPrice": "0xf4244",
      "from": "0x3ab12b9ff37c21c8c2d92f8f0209d1e04d6b57ee",
      "to": null,
      "contractAddress": "0xdb45fc925702f63cacea16f276ffee0b95c26d4e"
    },
    {
      "status": "0x1",
      "cumulativeGasUsed": "0x73815b",
      "logs": [],
      "logsBloom": "0x00000000000000000000000000000000000000000000000000000000000000000000000000000000000000000000000000000000000000000000000000000000000000000000000000000000000000000000000000000000000000000000000000000000000000000000000000000000000000000000000000000000000000000000000000000000000000000000000000000000000000000000000000000000000000000000000000000000000000000000000000000000000000000000000000000000000000000000000000000000000000000000000000000000000000000000000000000000000000000000000000000000000000000000000000000000",
      "type": "0x2",
      "transactionHash": "0xc80a3d195ce4504ff6988b0a68face11269dd00f688ee3ab3e799c68c00b3f71",
      "transactionIndex": "0x40",
      "blockHash": "0xb41a37a1bd98f7c76e407a2f4e1bfd8752df640b5855ba470fc04a97a2c3a1cd",
      "blockNumber": "0x91ba71",
      "gasUsed": "0x810d9",
      "effectiveGasPrice": "0xf4244",
      "from": "0x3ab12b9ff37c21c8c2d92f8f0209d1e04d6b57ee",
      "to": null,
      "contractAddress": "0xd30b3a8292deeb28dd5604ddac19e00fed5a99ae"
    },
    {
      "status": "0x1",
      "cumulativeGasUsed": "0x74548c",
      "logs": [
        {
          "address": "0xd30b3a8292deeb28dd5604ddac19e00fed5a99ae",
          "topics": [
            "0xb160545ba13423611b1bee41ce793d8cf1c84bf04cf366771c589ea83962f108",
            "0x0000000000000000000000000000000000000000000000000000000000000001",
            "0x0000000000000000000000003ab12b9ff37c21c8c2d92f8f0209d1e04d6b57ee",
            "0x000000000000000000000000db45fc925702f63cacea16f276ffee0b95c26d4e"
          ],
          "data": "0x",
          "blockHash": "0xb41a37a1bd98f7c76e407a2f4e1bfd8752df640b5855ba470fc04a97a2c3a1cd",
          "blockNumber": "0x91ba71",
          "blockTimestamp": "0x69086a9c",
          "transactionHash": "0x77dcf929c20ef47e82716c2dc175c47eeeee5f7265aedd3e0b5737968d363f63",
          "transactionIndex": "0x41",
          "logIndex": "0x5b",
          "removed": false
        },
        {
          "address": "0xdb45fc925702f63cacea16f276ffee0b95c26d4e",
          "topics": [
            "0xa2a3e8859aed03fbfaae627a7eb52f6e9b4fbf7afb18e03bcfdf8644a59e7f1a",
            "0x0000000000000000000000000000000000000000000000000000000000000001",
            "0x0000000000000000000000003ab12b9ff37c21c8c2d92f8f0209d1e04d6b57ee",
            "0x000000000000000000000000db45fc925702f63cacea16f276ffee0b95c26d4e"
          ],
          "data": "0x",
          "blockHash": "0xb41a37a1bd98f7c76e407a2f4e1bfd8752df640b5855ba470fc04a97a2c3a1cd",
          "blockNumber": "0x91ba71",
          "blockTimestamp": "0x69086a9c",
          "transactionHash": "0x77dcf929c20ef47e82716c2dc175c47eeeee5f7265aedd3e0b5737968d363f63",
          "transactionIndex": "0x41",
          "logIndex": "0x5c",
          "removed": false
        }
      ],
      "logsBloom": "0x00000000020000000000000000000100000000000000000000000000000000000000000000000000010000080000100000000000000000000000000000040000000000000000000000000000080000000100000000040001000000200000000000000000000000040000000000000000000000000000000020000000000000004000000000004010000000000000000000000000000000004000000000000000000000000000000000000000000000000000000010000000000000000000000000000000000000000000000000000000000000000000000000000000000040000000000050000000000000000000000000000000000000000000000000000000",
      "type": "0x2",
      "transactionHash": "0x77dcf929c20ef47e82716c2dc175c47eeeee5f7265aedd3e0b5737968d363f63",
      "transactionIndex": "0x41",
      "blockHash": "0xb41a37a1bd98f7c76e407a2f4e1bfd8752df640b5855ba470fc04a97a2c3a1cd",
      "blockNumber": "0x91ba71",
      "gasUsed": "0xd331",
      "effectiveGasPrice": "0xf4244",
      "from": "0x3ab12b9ff37c21c8c2d92f8f0209d1e04d6b57ee",
      "to": "0xd30b3a8292deeb28dd5604ddac19e00fed5a99ae",
      "contractAddress": null
    }
  ],
  "libraries": [],
  "pending": [],
  "returns": {},
  "timestamp": 1762159329704,
  "chain": 11155111,
  "commit": "7630473"
}