{
  "transactions": [
    {
      "hash": "0xd2b2db064c66a79ce599ef8bd8d75f3ace7471a39e7142467c4e51393e06d457",
      "transactionType": "CREATE",
      "contractName": "received",
      "contractAddress": "0x24ab825615f54181cea3889de13f9a441923a9f1",
      "function": null,
      "arguments": null,
      "transaction": {
        "from": "0x3ab12b9ff37c21c8c2d92f8f0209d1e04d6b57ee",
        "gas": "0x4451e",
        "value": "0x0",
        "input": "0x6080604052348015600e575f5ffd5b506102ed8061001c5f395ff3fe608060405234801561000f575f5ffd5b5060043610610034575f3560e01c80637d647cf2146100385780639c74b0a814610068575b5f5ffd5b610052600480360381019061004d9190610187565b610084565b60405161005f91906101cc565b60405180910390f35b610082600480360381019061007d9190610207565b6100a0565b005b5f602052805f5260405f205f915054906101000a900460ff1681565b60015f5f835f013581526020019081526020015f205f6101000a81548160ff0219169083151502179055508060400160208101906100de919061028c565b73ffffffffffffffffffffffffffffffffffffffff16816020016020810190610107919061028c565b73ffffffffffffffffffffffffffffffffffffffff16825f01357fa2a3e8859aed03fbfaae627a7eb52f6e9b4fbf7afb18e03bcfdf8644a59e7f1a60405160405180910390a450565b5f5ffd5b5f819050919050565b61016681610154565b8114610170575f5ffd5b50565b5f813590506101818161015d565b92915050565b5f6020828403121561019c5761019b610150565b5b5f6101a984828501610173565b91505092915050565b5f8115159050919050565b6101c6816101b2565b82525050565b5f6020820190506101df5f8301846101bd565b92915050565b5f5ffd5b5f606082840312156101fe576101fd6101e5565b5b81905092915050565b5f6060828403121561021c5761021b610150565b5b5f610229848285016101e9565b91505092915050565b5f73ffffffffffffffffffffffffffffffffffffffff82169050919050565b5f61025b82610232565b9050919050565b61026b81610251565b8114610275575f5ffd5b50565b5f8135905061028681610262565b92915050565b5f602082840312156102a1576102a0610150565b5b5f6102ae84828501610278565b9150509291505056fea2646970667358221220815de1130a2806c45c02384c8a27ce2961e720bb90628eca1299c63beb259c7664736f6c634300081e0033",
        "nonce": "0x4",
        "chainId": "0xaa36a7"
      },
      "additionalContracts": [],
      "isFixedGasLimit": false
    },
    {
      "hash": "0x111e53e3f7c142178e10e80f4da410d227ef3535f75b3d8ad02381fc57007f28",
      "transactionType": "CREATE",
      "contractName": "Sent",
      "contractAddress": "0x760ebfd77d638facbb2c80284b01e37874fec581",
      "function": null,
      "arguments": [
        "0x24AB825615f54181cea3889dE13f9A441923a9F1"
      ],
      "transaction": {
        "from": "0x3ab12b9ff37c21c8c2d92f8f0209d1e04d6b57ee",
        "gas": "0x6f342",
        "value": "0x0",
        "input": "0x60a060405234801561000f575f5ffd5b50604051610667380380610667833981810160405281019061003191906100c9565b8073ffffffffffffffffffffffffffffffffffffffff1660808173ffffffffffffffffffffffffffffffffffffffff1681525050506100f4565b5f5ffd5b5f73ffffffffffffffffffffffffffffffffffffffff82169050919050565b5f6100988261006f565b9050919050565b6100a88161008e565b81146100b2575f5ffd5b50565b5f815190506100c38161009f565b92915050565b5f602082840312156100de576100dd61006b565b5b5f6100eb848285016100b5565b91505092915050565b60805161054f6101185f395f818160740152818160e401526101a2015261054f5ff3fe608060405234801561000f575f5ffd5b5060043610610034575f3560e01c806354cfe21614610038578063a204898614610056575b5f5ffd5b610040610072565b60405161004d91906102ba565b60405180910390f35b610070600480360381019061006b9190610302565b610096565b005b7f000000000000000000000000000000000000000000000000000000000000000081565b5f818036038101906100a89190610477565b905033816020019073ffffffffffffffffffffffffffffffffffffffff16908173ffffffffffffffffffffffffffffffffffffffff16815250507f0000000000000000000000000000000000000000000000000000000000000000816040019073ffffffffffffffffffffffffffffffffffffffff16908173ffffffffffffffffffffffffffffffffffffffff1681525050806040015173ffffffffffffffffffffffffffffffffffffffff16816020015173ffffffffffffffffffffffffffffffffffffffff16825f01517fb160545ba13423611b1bee41ce793d8cf1c84bf04cf366771c589ea83962f10860405160405180910390a47f000000000000000000000000000000000000000000000000000000000000000073ffffffffffffffffffffffffffffffffffffffff16639c74b0a86040518060600160405280845f01518152602001846020015173ffffffffffffffffffffffffffffffffffffffff168152602001846040015173ffffffffffffffffffffffffffffffffffffffff168152506040518263ffffffff1660e01b815260040161024a9190610500565b5f604051808303815f87803b158015610261575f5ffd5b505af1158015610273573d5f5f3e3d5ffd5b505050505050565b5f73ffffffffffffffffffffffffffffffffffffffff82169050919050565b5f6102a48261027b565b9050919050565b6102b48161029a565b82525050565b5f6020820190506102cd5f8301846102ab565b92915050565b5f604051905090565b5f5ffd5b5f5ffd5b5f606082840312156102f9576102f86102e0565b5b81905092915050565b5f60608284031215610317576103166102dc565b5b5f610324848285016102e4565b91505092915050565b5f5ffd5b5f601f19601f8301169050919050565b7f4e487b71000000000000000000000000000000000000000000000000000000005f52604160045260245ffd5b61037782610331565b810181811067ffffffffffffffff8211171561039657610395610341565b5b80604052505050565b5f6103a86102d3565b90506103b4828261036e565b919050565b5f819050919050565b6103cb816103b9565b81146103d5575f5ffd5b50565b5f813590506103e6816103c2565b92915050565b6103f58161029a565b81146103ff575f5ffd5b50565b5f81359050610410816103ec565b92915050565b5f6060828403121561042b5761042a61032d565b5b610435606061039f565b90505f610444848285016103d8565b5f83015250602061045784828501610402565b602083015250604061046b84828501610402565b60408301525092915050565b5f6060828403121561048c5761048b6102dc565b5b5f61049984828501610416565b91505092915050565b6104ab816103b9565b82525050565b6104ba8161029a565b82525050565b606082015f8201516104d45f8501826104a2565b5060208201516104e760208501826104b1565b5060408201516104fa60408501826104b1565b50505050565b5f6060820190506105135f8301846104c0565b9291505056fea2646970667358221220e703a3e036305e1608f195bc5c1634df6e7c7f3bab776ed142ac54c79348fa4564736f6c634300081e003300000000000000000000000024ab825615f54181cea3889de13f9a441923a9f1",
        "nonce": "0x5",
        "chainId": "0xaa36a7"
      },
      "additionalContracts": [],
      "isFixedGasLimit": false
    },
    {
      "hash": "0x6492423699b4c7ea8d59efd44f85aa7446f446bc2a12a06b31a6ec5c75ce5794",
      "transactionType": "CALL",
      "contractName": "Sent",
      "contractAddress": "0x760ebfd77d638facbb2c80284b01e37874fec581",
      "function": "sendMes((uint256,address,address))",
      "arguments": [
        "(1, 0x0000000000000000000000000000000000000000, 0x0000000000000000000000000000000000000000)"
      ],
      "transaction": {
        "from": "0x3ab12b9ff37c21c8c2d92f8f0209d1e04d6b57ee",
        "to": "0x760ebfd77d638facbb2c80284b01e37874fec581",
        "gas": "0x12076",
        "value": "0x0",
        "input": "0xa2048986000000000000000000000000000000000000000000000000000000000000000100000000000000000000000000000000000000000000000000000000000000000000000000000000000000000000000000000000000000000000000000000000",
        "nonce": "0x6",
        "chainId": "0xaa36a7"
      },
      "additionalContracts": [],
      "isFixedGasLimit": false
    }
  ],
  "receipts": [
    {
      "status": "0x1",
      "cumulativeGasUsed": "0x596190",
      "logs": [],
      "logsBloom": "0x00000000000000000000000000000000000000000000000000000000000000000000000000000000000000000000000000000000000000000000000000000000000000000000000000000000000000000000000000000000000000000000000000000000000000000000000000000000000000000000000000000000000000000000000000000000000000000000000000000000000000000000000000000000000000000000000000000000000000000000000000000000000000000000000000000000000000000000000000000000000000000000000000000000000000000000000000000000000000000000000000000000000000000000000000000000",
      "type": "0x2",
      "transactionHash": "0xd2b2db064c66a79ce599ef8bd8d75f3ace7471a39e7142467c4e51393e06d457",
      "transactionIndex": "0x3e",
      "blockHash": "0xb78ed1664963bb0ede0d574e216e72ee937f7fe04bd85c3e4f9953bb138b3f8a",
      "blockNumber": "0x91685d",
      "gasUsed": "0x348dc",
      "effectiveGasPrice": "0xf424a",
      "from": "0x3ab12b9ff37c21c8c2d92f8f0209d1e04d6b57ee",
      "to": null,
      "contractAddress": "0x24ab825615f54181cea3889de13f9a441923a9f1"
    },
    {
      "status": "0x1",
      "cumulativeGasUsed": "0x5eba39",
      "logs": [],
      "logsBloom": "0x00000000000000000000000000000000000000000000000000000000000000000000000000000000000000000000000000000000000000000000000000000000000000000000000000000000000000000000000000000000000000000000000000000000000000000000000000000000000000000000000000000000000000000000000000000000000000000000000000000000000000000000000000000000000000000000000000000000000000000000000000000000000000000000000000000000000000000000000000000000000000000000000000000000000000000000000000000000000000000000000000000000000000000000000000000000",
      "type": "0x2",
      "transactionHash": "0x111e53e3f7c142178e10e80f4da410d227ef3535f75b3d8ad02381fc57007f28",
      "transactionIndex": "0x3f",
      "blockHash": "0xb78ed1664963bb0ede0d574e216e72ee937f7fe04bd85c3e4f9953bb138b3f8a",
      "blockNumber": "0x91685d",
      "gasUsed": "0x558a9",
      "effectiveGasPrice": "0xf424a",
      "from": "0x3ab12b9ff37c21c8c2d92f8f0209d1e04d6b57ee",
      "to": null,
      "contractAddress": "0x760ebfd77d638facbb2c80284b01e37874fec581"
    },
    {
      "status": "0x1",
      "cumulativeGasUsed": "0x5f8b11",
      "logs": [
        {
          "address": "0x760ebfd77d638facbb2c80284b01e37874fec581",
          "topics": [
            "0xb160545ba13423611b1bee41ce793d8cf1c84bf04cf366771c589ea83962f108",
            "0x0000000000000000000000000000000000000000000000000000000000000001",
            "0x0000000000000000000000003ab12b9ff37c21c8c2d92f8f0209d1e04d6b57ee",
            "0x00000000000000000000000024ab825615f54181cea3889de13f9a441923a9f1"
          ],
          "data": "0x",
          "blockHash": "0xb78ed1664963bb0ede0d574e216e72ee937f7fe04bd85c3e4f9953bb138b3f8a",
          "blockNumber": "0x91685d",
          "blockTimestamp": "0x69048ffc",
          "transactionHash": "0x6492423699b4c7ea8d59efd44f85aa7446f446bc2a12a06b31a6ec5c75ce5794",
          "transactionIndex": "0x40",
          "logIndex": "0x54",
          "removed": false
        },
        {
          "address": "0x24ab825615f54181cea3889de13f9a441923a9f1",
          "topics": [
            "0xa2a3e8859aed03fbfaae627a7eb52f6e9b4fbf7afb18e03bcfdf8644a59e7f1a",
            "0x0000000000000000000000000000000000000000000000000000000000000001",
            "0x0000000000000000000000003ab12b9ff37c21c8c2d92f8f0209d1e04d6b57ee",
            "0x00000000000000000000000024ab825615f54181cea3889de13f9a441923a9f1"
          ],
          "data": "0x",
          "blockHash": "0xb78ed1664963bb0ede0d574e216e72ee937f7fe04bd85c3e4f9953bb138b3f8a",
          "blockNumber": "0x91685d",
          "blockTimestamp": "0x69048ffc",
          "transactionHash": "0x6492423699b4c7ea8d59efd44f85aa7446f446bc2a12a06b31a6ec5c75ce5794",
          "transactionIndex": "0x40",
          "logIndex": "0x55",
          "removed": false
        }
      ],
      "logsBloom": "0x00000000020000000000000000000100000200000000000000000000000000000000000000000000010000080000000000000000000000000000000000040000000000000001000000000000080000000000000000040001000000200000000000000000000000000000000000000000000000000000000000000008008000004000000000000000000000000000000000000002000000000000000000000000000000000000000000400000000000000000000010000800000000000000000000000000000000000400000000000000000000000000000000000000000040000000000040000000000000000000000000000000000000000000000000000000",
      "type": "0x2",
      "transactionHash": "0x6492423699b4c7ea8d59efd44f85aa7446f446bc2a12a06b31a6ec5c75ce5794",
      "transactionIndex": "0x40",
      "blockHash": "0xb78ed1664963bb0ede0d574e216e72ee937f7fe04bd85c3e4f9953bb138b3f8a",
      "blockNumber": "0x91685d",
      "gasUsed": "0xd0d8",
      "effectiveGasPrice": "0xf424a",
      "from": "0x3ab12b9ff37c21c8c2d92f8f0209d1e04d6b57ee",
      "to": "0x760ebfd77d638facbb2c80284b01e37874fec581",
      "contractAddress": null
    }
  ],
  "libraries": [],
  "pending": [],
  "returns": {},
  "timestamp": 1761906717064,
  "chain": 11155111,
  "commit": "abd05cf"
}