{
  "transactions": [
    {
      "hash": "0x0443cc09b22e391d8287295b62c18fc5aff2441acf55e09c390a097fac725382",
      "transactionType": "CREATE",
      "contractName": "received",
      "contractAddress": "0x88cbace16267cdb7c35e55c8ddde903c0bb12fe1",
      "function": null,
      "arguments": null,
      "transaction": {
        "from": "0x3ab12b9ff37c21c8c2d92f8f0209d1e04d6b57ee",
        "gas": "0x4451e",
        "value": "0x0",
        "input": "0x6080604052348015600e575f5ffd5b506102ed8061001c5f395ff3fe608060405234801561000f575f5ffd5b5060043610610034575f3560e01c80637d647cf2146100385780639c74b0a814610068575b5f5ffd5b610052600480360381019061004d9190610187565b610084565b60405161005f91906101cc565b60405180910390f35b610082600480360381019061007d9190610207565b6100a0565b005b5f602052805f5260405f205f915054906101000a900460ff1681565b60015f5f835f013581526020019081526020015f205f6101000a81548160ff0219169083151502179055508060400160208101906100de919061028c565b73ffffffffffffffffffffffffffffffffffffffff16816020016020810190610107919061028c565b73ffffffffffffffffffffffffffffffffffffffff16825f01357fa2a3e8859aed03fbfaae627a7eb52f6e9b4fbf7afb18e03bcfdf8644a59e7f1a60405160405180910390a450565b5f5ffd5b5f819050919050565b61016681610154565b8114610170575f5ffd5b50565b5f813590506101818161015d565b92915050565b5f6020828403121561019c5761019b610150565b5b5f6101a984828501610173565b91505092915050565b5f8115159050919050565b6101c6816101b2565b82525050565b5f6020820190506101df5f8301846101bd565b92915050565b5f5ffd5b5f606082840312156101fe576101fd6101e5565b5b81905092915050565b5f6060828403121561021c5761021b610150565b5b5f610229848285016101e9565b91505092915050565b5f73ffffffffffffffffffffffffffffffffffffffff82169050919050565b5f61025b82610232565b9050919050565b61026b81610251565b8114610275575f5ffd5b50565b5f8135905061028681610262565b92915050565b5f602082840312156102a1576102a0610150565b5b5f6102ae84828501610278565b9150509291505056fea2646970667358221220815de1130a2806c45c02384c8a27ce2961e720bb90628eca1299c63beb259c7664736f6c634300081e0033",
        "nonce": "0xb",
        "chainId": "0xaa36a7"
      },
      "additionalContracts": [],
      "isFixedGasLimit": false
    },
    {
      "hash": "0x4f605ccb6610d344c6e69c391626ff70420a4558b14b2b8c603bab616ff4dad3",
      "transactionType": "CREATE",
      "contractName": "Sent",
      "contractAddress": "0xf4ff664f397ae607b49273b8592ecc2966fc015f",
      "function": null,
      "arguments": [
        "0x88cBACe16267CDb7C35E55C8dddE903C0Bb12fE1"
      ],
      "transaction": {
        "from": "0x3ab12b9ff37c21c8c2d92f8f0209d1e04d6b57ee",
        "gas": "0x585d8",
        "value": "0x0",
        "input": "0x60a060405234801561000f575f5ffd5b50604051610512380380610512833981810160405281019061003191906100c9565b8073ffffffffffffffffffffffffffffffffffffffff1660808173ffffffffffffffffffffffffffffffffffffffff1681525050506100f4565b5f5ffd5b5f73ffffffffffffffffffffffffffffffffffffffff82169050919050565b5f6100988261006f565b9050919050565b6100a88161008e565b81146100b2575f5ffd5b50565b5f815190506100c38161009f565b92915050565b5f602082840312156100de576100dd61006b565b5b5f6100eb848285016100b5565b91505092915050565b6080516104016101115f395f81816074015260e401526104015ff3fe608060405234801561000f575f5ffd5b5060043610610034575f3560e01c806354cfe21614610038578063a204898614610056575b5f5ffd5b610040610072565b60405161004d91906101e3565b60405180910390f35b610070600480360381019061006b919061022b565b610096565b005b7f000000000000000000000000000000000000000000000000000000000000000081565b5f818036038101906100a891906103a0565b905033816020019073ffffffffffffffffffffffffffffffffffffffff16908173ffffffffffffffffffffffffffffffffffffffff16815250507f0000000000000000000000000000000000000000000000000000000000000000816040019073ffffffffffffffffffffffffffffffffffffffff16908173ffffffffffffffffffffffffffffffffffffffff1681525050806040015173ffffffffffffffffffffffffffffffffffffffff16816020015173ffffffffffffffffffffffffffffffffffffffff16825f01517fb160545ba13423611b1bee41ce793d8cf1c84bf04cf366771c589ea83962f10860405160405180910390a45050565b5f73ffffffffffffffffffffffffffffffffffffffff82169050919050565b5f6101cd826101a4565b9050919050565b6101dd816101c3565b82525050565b5f6020820190506101f65f8301846101d4565b92915050565b5f604051905090565b5f5ffd5b5f5ffd5b5f6060828403121561022257610221610209565b5b81905092915050565b5f606082840312156102405761023f610205565b5b5f61024d8482850161020d565b91505092915050565b5f5ffd5b5f601f19601f8301169050919050565b7f4e487b71000000000000000000000000000000000000000000000000000000005f52604160045260245ffd5b6102a08261025a565b810181811067ffffffffffffffff821117156102bf576102be61026a565b5b80604052505050565b5f6102d16101fc565b90506102dd8282610297565b919050565b5f819050919050565b6102f4816102e2565b81146102fe575f5ffd5b50565b5f8135905061030f816102eb565b92915050565b61031e816101c3565b8114610328575f5ffd5b50565b5f8135905061033981610315565b92915050565b5f6060828403121561035457610353610256565b5b61035e60606102c8565b90505f61036d84828501610301565b5f8301525060206103808482850161032b565b60208301525060406103948482850161032b565b60408301525092915050565b5f606082840312156103b5576103b4610205565b5b5f6103c28482850161033f565b9150509291505056fea264697066735822122094364f0af384c838f48dd5a36556e0b573c275753eee1ec871ca992f54cca8d464736f6c634300081e003300000000000000000000000088cbace16267cdb7c35e55c8ddde903c0bb12fe1",
        "nonce": "0xc",
        "chainId": "0xaa36a7"
      },
      "additionalContracts": [],
      "isFixedGasLimit": false
    },
    {
      "hash": "0xfc23b7eb61bf9a01d7ffa6843fbca4276e1f5f5fc427798fb26df9f8d84cf03c",
      "transactionType": "CALL",
      "contractName": "Sent",
      "contractAddress": "0xf4ff664f397ae607b49273b8592ecc2966fc015f",
      "function": "sendMes((uint256,address,address))",
      "arguments": [
        "(1, 0x0000000000000000000000000000000000000000, 0x0000000000000000000000000000000000000000)"
      ],
      "transaction": {
        "from": "0x3ab12b9ff37c21c8c2d92f8f0209d1e04d6b57ee",
        "to": "0xf4ff664f397ae607b49273b8592ecc2966fc015f",
        "gas": "0x8e19",
        "value": "0x0",
        "input": "0xa2048986000000000000000000000000000000000000000000000000000000000000000100000000000000000000000000000000000000000000000000000000000000000000000000000000000000000000000000000000000000000000000000000000",
        "nonce": "0xd",
        "chainId": "0xaa36a7"
      },
      "additionalContracts": [],
      "isFixedGasLimit": false
    }
  ],
  "receipts": [
    {
      "status": "0x1",
      "cumulativeGasUsed": "0x733fde",
      "logs": [],
      "logsBloom": "0x00000000000000000000000000000000000000000000000000000000000000000000000000000000000000000000000000000000000000000000000000000000000000000000000000000000000000000000000000000000000000000000000000000000000000000000000000000000000000000000000000000000000000000000000000000000000000000000000000000000000000000000000000000000000000000000000000000000000000000000000000000000000000000000000000000000000000000000000000000000000000000000000000000000000000000000000000000000000000000000000000000000000000000000000000000000",
      "type": "0x2",
      "transactionHash": "0x0443cc09b22e391d8287295b62c18fc5aff2441acf55e09c390a097fac725382",
      "transactionIndex": "0x35",
      "blockHash": "0x6bb0ed30ecd2d81d1d6fe7e7403e6ffcc85c5d344d7335f62f5070aebd459c63",
      "blockNumber": "0x91b47e",
      "gasUsed": "0x348dc",
      "effectiveGasPrice": "0xf424c",
      "from": "0x3ab12b9ff37c21c8c2d92f8f0209d1e04d6b57ee",
      "to": null,
      "contractAddress": "0x88cbace16267cdb7c35e55c8ddde903c0bb12fe1"
    },
    {
      "status": "0x1",
      "cumulativeGasUsed": "0x777f71",
      "logs": [],
      "logsBloom": "0x00000000000000000000000000000000000000000000000000000000000000000000000000000000000000000000000000000000000000000000000000000000000000000000000000000000000000000000000000000000000000000000000000000000000000000000000000000000000000000000000000000000000000000000000000000000000000000000000000000000000000000000000000000000000000000000000000000000000000000000000000000000000000000000000000000000000000000000000000000000000000000000000000000000000000000000000000000000000000000000000000000000000000000000000000000000",
      "type": "0x2",
      "transactionHash": "0x4f605ccb6610d344c6e69c391626ff70420a4558b14b2b8c603bab616ff4dad3",
      "transactionIndex": "0x36",
      "blockHash": "0x6bb0ed30ecd2d81d1d6fe7e7403e6ffcc85c5d344d7335f62f5070aebd459c63",
      "blockNumber": "0x91b47e",
      "gasUsed": "0x43f93",
      "effectiveGasPrice": "0xf424c",
      "from": "0x3ab12b9ff37c21c8c2d92f8f0209d1e04d6b57ee",
      "to": null,
      "contractAddress": "0xf4ff664f397ae607b49273b8592ecc2966fc015f"
    },
    {
      "status": "0x1",
      "cumulativeGasUsed": "0x77e09b",
      "logs": [
        {
          "address": "0xf4ff664f397ae607b49273b8592ecc2966fc015f",
          "topics": [
            "0xb160545ba13423611b1bee41ce793d8cf1c84bf04cf366771c589ea83962f108",
            "0x0000000000000000000000000000000000000000000000000000000000000001",
            "0x0000000000000000000000003ab12b9ff37c21c8c2d92f8f0209d1e04d6b57ee",
            "0x00000000000000000000000088cbace16267cdb7c35e55c8ddde903c0bb12fe1"
          ],
          "data": "0x",
          "blockHash": "0x6bb0ed30ecd2d81d1d6fe7e7403e6ffcc85c5d344d7335f62f5070aebd459c63",
          "blockNumber": "0x91b47e",
          "blockTimestamp": "0x69082338",
          "transactionHash": "0xfc23b7eb61bf9a01d7ffa6843fbca4276e1f5f5fc427798fb26df9f8d84cf03c",
          "transactionIndex": "0x37",
          "logIndex": "0x3e",
          "removed": false
        }
      ],
      "logsBloom": "0x00000000020000000000000004000000000000000000000000000000000000000000000000000000000000080000000000000000000000000000000000040000000000000000000000000000000000000000000000040000000000200000800000000000000000000000000000000000000000000000000000000000000000004000000000000004000000000000000040000000000000000000000000000000000000000000000000000000000000000000000010000000000000000000000000000000000000000000000000000000000000000000000000000000000040000000000040000000000000000000000000000001000100000000000000000000",
      "type": "0x2",
      "transactionHash": "0xfc23b7eb61bf9a01d7ffa6843fbca4276e1f5f5fc427798fb26df9f8d84cf03c",
      "transactionIndex": "0x37",
      "blockHash": "0x6bb0ed30ecd2d81d1d6fe7e7403e6ffcc85c5d344d7335f62f5070aebd459c63",
      "blockNumber": "0x91b47e",
      "gasUsed": "0x612a",
      "effectiveGasPrice": "0xf424c",
      "from": "0x3ab12b9ff37c21c8c2d92f8f0209d1e04d6b57ee",
      "to": "0xf4ff664f397ae607b49273b8592ecc2966fc015f",
      "contractAddress": null
    }
  ],
  "libraries": [],
  "pending": [],
  "returns": {},
  "timestamp": 1762141032935,
  "chain": 11155111,
  "commit": "7630473"
}